:03000000020723D1
:0C072300787FE4F6D8FD75817E0202A20A
:080231008F1B8E1A8D198C1829
:10023900D203120714E54F540F854E4E4410F54F63
:10024900C2017FA01205BCE54F540F854E4E4420D4
:10025900F54FAF1BAE1AAD19AC1878081200E9EFCB
:10026900120622AF1BE51B120622E54F540F854EDD
:100279004E4460F54F7B007A0079361206DB8F4CCD
:10028900AF1C1206229203E54F540F854E4E44408F
:08029900F54F12072F534F0F20
:0102A100223A
:080309008F758E748D738C72E8
:10031100D204120714E54F540F854E4E4410F54F89
:10032100C2017FA01205BC9204AF75AE74AD73AC6F
:100331007278081200E9EF1206229204AF75E57592
:100341001206229204120714D2017FA01205BCD218
:10035100011206528F76E54F540F854E4E4440F5FB
:090361004F12072F534F0FAF7626
:01036A002270
:100585008F088B098A0A890B120714C2017FA012F2
:1005950005BCAF088019AB09AA0AA90B1200266091
:1005A50013050BE50B7002050A14F9120026FF125C
:0705B500062280E202072F7D
:0203C7008F089D
:1003C900120714C2017FA01205BC92007F00E4123B
:1003D90006229200E508FF1206229200E4F509F5CB
:1003E9000AC3E509940A748094805024120714D230
:1003F900017FA01205BCD201120652EFF4600AAEC9
:100409000A050A74212EF8A60712072F050980D1BB
:070419007421250AF8E4F646
:0104200022B9
:1005F200E4F54DF54BFE7F15FDFB7A0079211202E1
:1006020005534FFE534FFD534FFBE4F54CFE7F1550
:10061200FDFB7A007936120205534FF7534F0F2232
:0F071400D282D2810000C2820000C28100002286
:0B072F00C2820000D2810000D28222B2
:10070300D2820000D2810000C2820000C2810000B8
:0107130022C3
:1005BC00C202300103430701E4FDFCEF30E703D333
:1005CC008001C39282D281EF25E0FFC2810DBD0074
:1005DC00010CED64084C70E32082FDD2810000C256
:0505EC00810000A28265
:0105F10022E7
:10062200C201E4FDFCEF30E703D38001C39282D222
:1006320081EF25E0FFC2810DBD00010CED64084C85
:0F06420070E32082FDD2810000C2810000A282FD
:010651002286
:10065200E4FFD282FDFCD281EF25E0FFA282E433E7
:100662004207C281000DBD00010CED64084C70E62A
:0C067200A20192820000D2810000C2812F
:01067E002259
:1005490048656C6C6F00454550524F4D2057726994
:100559007474656E3A20000D0A00454550524F4D9E
:10056900205265747269657665643A200045525275
:0C0579003A205374725F46696C6C0D00F0
:1002A200C2931200031205F278367C007D007BFFB8
:1002B2007A0579491201E87BFF7A05794F1206A582
:1002C2007B007A0079361206A57BFF7A05796012E7
:1002D20006A57B007A007936E4FF1205851204C375
:1002E200E4FF1203C77BFF7A0579631206A57B0040
:1002F2007A0079211206A57BFF7A0579601206A59C
:070302001204C3C29380FE48
:08067F008F7A8E798D788C775B
:10068700E4F583F582AF82AE83E4FCFDAB7AAA7909
:0D069700A978A877D31200D84003A380E80B
:0106A4002233
:0804C3007F327E007D007C0009
:0804CB008F0B8E0A8D098C08CD
:1004D300AF0BAE0AAD09AC08EC4D4E4F60277F6EF3
:1004E3007E00EF1F70011EEF4E70F7E50B24FFF542
:1004F3000BE50A34FFF50AE50934FFF509E508348D
:05050300FFF50880CBAC
:0105080022D0
:1006C5008F7E8E7D8D7C8C7B787B74FF1200FEEC9B
:0606D5004D4E4F70F322B0
:10036B008B118A1289138C148D15E51764014516B0
:10037B00701E12008EFDACF07E007401A815088073
:10038B0005C333CE33CED8F9FFEC4EFEED4F8024B0
:10039B00AB11AA12A91312008EFDACF07E007401F2
:1003AB00A815088005C333CE33CED8F9F4FFEEF48D
:0C03BB005CFEED5FFFEE8FF01200B92237
:080421008B098A0A890B8D0C7E
:10042900E94A4B600BD3E50C941E74809480400E0E
:100439007BFF7A0579761206A57E007F0222E4FF0A
:10044900EFC3950C5013AB09AA0AA90B8F827583C8
:1004590000E50D12006C0F80E7AB09AA0AA90B8F02
:0B04690082758300E412006CE4FEFFCB
:010474002265
:03073A00D2AF2219
:1000030012073AD2AC759850758920758DFDD28E42
:100013007F041205097F017E007D007C000204CB72
:100509008F08E50814601614601014602F14600435
:100519002404702B4371024371204371087B007AD4
:10052900007950E4F50D7D1E120421E4F56E537136
:10053900EFF56F5371FBE508640470034371012201
:1006F000E57130E00D8F995371FE3099FDC2994339
:0307000071012262
:0606A5008B0E8A0F891084
:1006AB00E4FEAB0EAA0FA9108E8275830012003FD9
:0906BB00FF60061206F00E80E952
:0106C4002213
:030023000204755F
:10047500C0E0C0F0C083C082C0D075D000C000C04D
:1004850001C002C003C004C005C006C007309905FD
:10049500C29943710130980B5371FD85996F120014
:1004A50000C298D007D006D005D004D003D002D022
:0E04B50001D000D0D0D082D083D0F0D0E03281
:10002600BB010689828A83E0225002E722BBFE02D8
:09003600E32289828A83E493220B
:10003F00BB010CE58229F582E5833AF583E0225076
:10004F0006E92582F8E622BBFE06E92582F8E222C0
:0D005F00E58229F582E5833AF583E49322DA
:10006C00F8BB010DE58229F582E5833AF583E8F0CA
:10007C00225006E92582C8F622BBFE05E92582C876
:02008C00F2225E
:10008E00BB010A89828A83E0F5F0A3E0225006873D
:10009E00F009E71922BBFE07E3F5F009E3192289FF
:0B00AE00828A83E493F5F07401932232
:1000B900BB010A89828A83F0E5F0A3F0225006F792
:0F00C90009A7F01922BBFE06F3E5F009F319228F
:1000D800EB9FF5F0EA9E42F0E99D42F0E89C45F07E
:0100E80022F5
:1000E900E8600FECC313FCED13FDEE13FEEF13FFF5
:0300F900D8F12219
:1000FC007401FF3395E0FEFDFC080808E6CF2FF6EF
:10010C0018E6CE3EF618E6CD3DF618E6CC3CF622C7
:10011C00E709F60870FA8046E709F20870FA803EA3
:10012C0088828C83E709F0A370FA807EE309F608D5
:10013C0070FA8076E309F20870FA806E88828C83FC
:10014C00E309F0A370FA806289828A83E0A3F6083F
:10015C0070FA805689828A83E0A3F20870FA804A8A
:10016C0080D280FA80C680D4806580F28031801085
:10017C0080A680EA809A80A880DA80E280CA8031EA
:10018C0089828A83ECFAE493A3C8C582C8CCC58360
:10019C00CCF0A3C8C582C8CCC583CC70E9800D89CE
:1001AC00828A83E493A3F60870F9ECFAA9F0EDFBCC
:1001BC002289828A83ECFAE0A3C8C582C8CCC583A5
:1001CC00CCF0A3C8C582C8CCC583CC70EA80DD89CD
:1001DC00828A83E493A3F20870F980CE88F0ED2430
:1001EC0002B4040050C4F582EB2402B4040050BAEB
:0901FC00232345822390016C735A
:1006DB00E4FFFE120026600C0FEF70010E09E970AB
:0506EB00F20A80EF227D
:10020500EF4E6012EF60010EEDBB010B89828A8310
:10021500F0A3DFFCDEFA2289F05007F709DFFCA91D
:0C022500F022BBFEFCF309DFFCA9F02274
:00000001FF
